:1000000011C100000C94D3250C94FE250C942926D4
:100010000C9454260C947F260C94AA260C94D52676
:100020000C9400270C941A0C0C94BD0C0C94F90C35
:100030002AC1000028C1000026C1000024C1000020
:1000400022C1000020C100001EC100001CC1000030
:100050001AC1000018C1000016C100000C942B2723
:1000600012C100000C94B02A0C94E62A0CC10000C6
:100070000AC1000008C1000006C1000004C1000060
:1000800002C1000000C10000FEC00000FCC0000072
:100090000C943C2B0C94722BF6C0000027C7000078
:1000A000F2C00000F0C00000EEC00000ECC0000094
:1000B000EAC00000E8C00000E6C00000E4C00000A4
:1000C000E2C00000E0C000000C9464210C94C82B36
:1000D0000C94FE2BD8C000000C94542C0C948A2C49
:1000E000D2C00000084AD73B3BCE016E84BCBFFDA6
:1000F000C12F3D6C74319ABD56833DDA3D00C77FF8
:1001000011BED9E4BB4C3E916BAAAABE0000008090
:100110003F0000000A0B02090C0D0E080703040142
:1001200000000000000000000000000000000000CF
:10013000000000000000000000000000000012119C
:10014000100000000000000000000000000000009F
:10015000000000000000000001021020200808102C
:100160002040102040800201020108040201010227
:100170000408102040808040201008040201800400
:10018000020180402010080402010804020101025B
:10019000040810204080010204081020408005055A
:1001A0000505070508080808020202020A0A0808ED
:1001B000040404040101010101010101030303031B
:1001C00003030303040707070C0C0C0C0C0C0C0CAA
:1001D0000202020206060606060606060B0B0B0BBB
:1001E0000B0B0B0B00002200250028002B002E001B
:1001F0003100340002010000050108010B0100007C
:100200002100240027002A002D00300033000101C6
:100210000000040107010A016706150B0F2B9B2B39
:10022000272CB32C11241FBECFEFD1E2DEBFCDBFF0
:1002300000E00CBF14E0A0E0B2E0E0E9FEE500E081
:100240000BBF02C007900D92AA3EB107D9F72AE072
:10025000AAEEB4E001C01D92AC3CB207E1F711E098
:10026000C2E1D1E000E006C021970109802FFE0124
:100270000E94392FCC30D10780E00807A9F70E94EF
:10028000D4210C94462FBCCE8823E1F0823061F05B
:10029000833089F08130B1F440E855E260E070E0ED
:1002A00081E090E00C94462140E855E260E070E087
:1002B00082E090E0F7CF40E855E260E070E083E054
:1002C00090E0F0CF08954F925F926F927F928F925D
:1002D0009F92AF92BF92CF92EF92FF920F931F9394
:1002E000CF93DF93CDB7DEB72B013A01F02EB401E7
:1002F00030E02830310511F424E030E00AE010E06D
:10030000CC2061F091E000E110E0C91639F0E2E0A4
:1003100008E010E0CE1611F002E010E0813009F4A0
:10032000E8C0B0F0823009F4C5C1833009F4A3C23B
:10033000DF91CF911F910F91FF90EF90CF90BF90E1
:10034000AF909F908F907F906F905F904F900895A7
:10035000F1101BC0269DA001279D500D369D500D0C
:100360001124B20187EB96E0DF91CF911F910F919D
:10037000FF90EF90CF90BF90AF909F908F907F9025
:100380006F905F904F900C94E02C87EB96E00E946A
:100390001C2DE11014C0640C751C6414750441F22A
:1003A000F20161912F01F1E0A80187EB96E0FF12C5
:1003B00003C00E94EE2DF1CF0E94F42DEECF81E01C
:1003C000E81215C091E0691A710808F4B1CFF20182
:1003D000619171912F01F1E0A80187EB96E0FF1286
:1003E00003C00E94042EEECF0E94092EEBCF82E0C4
:1003F000E81217C091E0691A710808F499CFF20168
:1004000041915191619171912F01F1E0980187EB38
:1004100096E0FF1203C00E94E22DECCF0E94192E3D
:10042000E9CF83E0E81218C0640C751C64147504ED
:1004300009F47ECFF20161912F01062E000C770B9B
:10044000F1E0A80187EB96E0FF1203C00E94BC2DEB
:10045000EDCF0E94C22DEACF84E0E81215C091E0F2
:10046000691A710808F464CFF201619171912F014A
:10047000F1E0A80187EB96E0FF1203C00E94BC2DBB
:10048000EECF0E94C22DEBCF85E0E81217C091E0BD
:10049000691A710808F44CCFF201419151916191B0
:1004A00071912F01F1E0980187EB96E0FF1203C0F4
:1004B0000E94772DECCF0E94D22DE9CF86E0E81282
:1004C00037CFB12C91E0691A710808F431CFF201ED
:1004D00041915191619171912F01F1E0950187EB6B
:1004E00096E0FF1203C00E94062FECCF0E94072F58
:1004F000E9CFF1100BC0269DA001279D500D369D20
:10050000500D1124B20184E597E02ECF84E597E0E9
:100510000E941C2DE11015C0640C751C4614570474
:1005200009F406CFF20161912F01F1E0A80184E501
:1005300097E0FF1203C00E94EE2DF0CF0E94F42D31
:10054000EDCF81E0E81215C091E0691A710808F456
:10055000EFCEF201619171912F01F1E0A80184E5E4
:1005600097E0FF1203C00E94042EEECF0E94092ED6
:10057000EBCF82E0E81217C091E0691A710808F425
:10058000D7CEF20141915191619171912F01F1E02A
:10059000980184E597E0FF1203C00E94E22DECCFA2
:1005A0000E94192EE9CF83E0E81218C0640C751C74
:1005B0006414750409F4BCCEF20161912F01062E7A
:1005C000000C770BF1E0A80184E597E0FF1203C06F
:1005D0000E94BC2DEDCF0E94C22DEACF84E0E8122C
:1005E00015C091E0691A710808F4A2CEF201619178
:1005F00071912F01F1E0A80184E597E0FF1203C09B
:100600000E94BC2DEECF0E94C22DEBCF85E0E812F8
:1006100017C091E0691A710808F48ACEF20141917D
:100620005191619171912F01F1E0980184E597E07A
:10063000FF1203C00E94772DECCF0E94D22DE9CF8C
:1006400086E0E81275CEB12C91E0691A710808F4C1
:100650006FCEF20141915191619171912F01F1E0C1
:10066000FF1214C0C11006C0950184E597E00E94F6
:10067000062FEACFCB01BA010E943E23AB01BC0199
:10068000980184E597E00E94772DDECFC11006C067
:10069000950184E597E00E94072FD6CFCB01BA01E0
:1006A0000E943E23AB01BC01980184E597E00E94C3
:1006B000D22DCACFF1100BC0269DA001279D500D51
:1006C000369D500D1124B20181EF97E04DCE81EFA0
:1006D00097E00E941C2DE11015C0640C751C461497
:1006E000570409F425CEF20161912F01F1E0A80130
:1006F00081EF97E0FF1203C00E94EE2DF0CF0E9421
:10070000F42DEDCF81E0E81215C091E0691A71086F
:1007100008F40ECEF201619171912F01F1E0A80170
:1007200081EF97E0FF1203C00E94042EEECF0E94DB
:10073000092EEBCF82E0E81217C091E0691A710828
:1007400008F4F6CDF20141915191619171912F011F
:10075000F1E0980181EF97E0FF1203C00E94E22DC3
:10076000ECCF0E94192EE9CF83E0E81218C0640C88
:10077000751C6414750409F4DBCDF20161912F013D
:10078000062E000C770BF1E0A80181EF97E0FF1235
:1007900003C00E94BC2DEDCF0E94C22DEACF84E0A1
:1007A000E81215C091E0691A710808F4C1CDF20190
:1007B000619171912F01F1E0A80181EF97E0FF12A3
:1007C00003C00E94BC2DEECF0E94C22DEBCF85E06E
:1007D000E81217C091E0691A710808F4A9CDF20176
:1007E00041915191619171912F01F1E0980181EF57
:1007F00097E0FF1203C00E94772DECCF0E94D22D0C
:10080000E9CF86E0E81294CDB12C91E0691A710825
:1008100008F48ECDF20141915191619171912F01B6
:10082000F1E0FF1214C0C11006C0950181EF97E0FE
:100830000E94062FEACFCB01BA010E943E23AB01F2
:10084000BC01980181EF97E00E94772DDECFC110A7
:1008500006C0950181EF97E00E94072FD6CFCB010C
:10086000BA010E943E23AB01BC01980181EF97E0E1
:100870000E94D22DCACFF1100BC0269DA001279D4A
:10088000500D369D500D1124B2018EE898E06CCDCC
:100890008EE898E00E941C2DE11015C0640C751CB8
:1008A0006414750409F444CDF20161912F01F1E063
:1008B000A8018EE898E0FF1203C00E94EE2DF0CF51
:1008C0000E94F42DEDCF81E0E81215C091E0691A85
:1008D000710808F42DCDF201619171912F01F1E0C1
:1008E000A8018EE898E0FF1203C00E94042EEECF0C
:1008F0000E94092EEBCF82E0E81217C091E0691A3E
:10090000710808F415CDF2014191519161917191F5
:100910002F01F1E098018EE898E0FF1203C00E94D9
:10092000E22DECCF0E94192EE9CF83E0E81218C027
:10093000640C751C6414750409F4FACCF20161911D
:100940002F01062E000C770BF1E0A8018EE898E04D
:10095000FF1203C00E94BC2DEDCF0E94C22DEACF32
:1009600084E0E81215C091E0691A710808F4E0CC3F
:10097000F201619171912F01F1E0A8018EE898E0F8
:10098000FF1203C00E94BC2DEECF0E94C22DEBCF00
:1009900085E0E81217C091E0691A710808F4C8CC24
:1009A000F20141915191619171912F01F1E0980112
:1009B0008EE898E0FF1203C00E94772DECCF0E94D2
:1009C000D22DE9CF86E0E812B3CCB12C91E0691AC0
:1009D000710808F4ADCCF20141915191619171918E
:1009E0002F01F1E0FF1214C0C11006C095018EE87E
:1009F00098E00E94062FEACFCB01BA010E943E2365
:100A0000AB01BC0198018EE898E00E94772DDECF03
:100A1000C11006C095018EE898E00E94072FD6CF3E
:100A2000CB01BA010E943E23AB01BC0198018EE8C4
:100A300098E00E94D22DCACF90E080E00895809186
:100A40001E0590911F05891B990B089590911F0514
:100A500080911E052FEF3FEF981748F4E92FF0E043
:100A6000E05EFA4F208130E09F5F90931F05C9013F
:100A70000895E0911F0580911E05E81730F4F0E01D
:100A8000E05EFA4F808190E008958FEF9FEF089528
:100A90000895CF93DF93EC01E091F604F091F70411
:100AA0003097F1F090911F0580911E059817C0F0C6
:100AB00090E0292F30E02617370754F4DE01A20F0B
:100AC000B31F4C91205E3A4FD9014C939F5FF1CFF9
:100AD00010921F0560931E05CB01DF91CF911994F1
:100AE000DF91CF910895E091F804F091F9043097E7
:100AF00029F01092FC041092FB0419940895CF93EE
:100B0000DF931F92CDB7DEB769832091FA042223C9
:100B1000F9F02091FB04203258F021E030E0FC0194
:100B20003383228390E080E00F90DF91CF9108958E
:100B30008091FC04E82FF0E0E350FB4F9981908313
:100B40008F5F8093FC048093FB0481E090E0ECCF06
:100B500061E0CE01019689D1F8CFCF92DF92EF927A
:100B6000FF920F931F93CF93DF937C01CB018A01F8
:100B70002091FA04222389F0EB016B01C40ED51EEB
:100B8000CC15DD0561F06991D701ED91FC910190E3
:100B9000F081E02DC7011995F3CF642F66D1C8010C
:100BA000DF91CF911F910F91FF90EF90DF90CF9049
:100BB000089510921F0510921E051092FC041092C9
:100BC000FB0496D083E795E07CD189E495E074C17D
:100BD00081E08093FA0460931D051092FC0410924A
:100BE000FB0408950F93062F21E04091FB046DEF65
:100BF00074E080911D05E2D01092FC041092FB0479
:100C00001092FA040F9108954F925F926F927F9223
:100C1000AF92BF92CF92EF92FF920F931F93CF9319
:100C2000DF935C01F62ED42F28013901EE2009F163
:100C3000CFDFCE2DC43008F0C3E0C150B8F028E0BB
:100C4000C29FC0011124A301920104C0569547958B
:100C5000379527958A95D2F7B901D501ED91FC9189
:100C60000190F081E02DC5011995E7CF60E0C50145
:100C7000B9DF4D2FD13208F040E22C2D60E275E053
:100C80008F2D54D010921F0580931E05DF91CF91B8
:100C90001F910F91FF90EF90CF90BF90AF907F90FA
:100CA0006F905F904F900895CF92EF920F931F93A4
:100CB000C22EE12C00E010E09801A6DF1F910F91F9
:100CC000EF90CF90089521E0EFCF61E08BCFEAEE77
:100CD000F4E01382128288EE93E0A0E0B0E0848317
:100CE0009583A683B78380E894E0918380830895F9
:100CF0001092AD0581E08093AB051092AA0561E0EA
:100D000084E10E94592961E085E10E945929E9EBBB
:100D1000F0E080818E7F808380818D7F808388E476
:100D20008093B80085E48093BC000895413208F0B8
:100D300043C09091AD059111FCCF91E09093AD052A
:100D40002093AB052FEF2093400510928505240FCB
:100D5000209384059093AC059091AC05880F892B66
:100D60008093AC058091AA05813009F51092AA05FF
:100D70008091AC058093BB008091BC0083FDF8CFCF
:100D800085EC8093BC008091AD058130E1F38091CA
:100D90008505841710F440918505A6E8B5E0962FE7
:100DA000FB018E2F891B841720F0842F089585EE78
:100DB000E8CF8D918193F5CF40E0F7CF0F9341328B
:100DC00008F04BC09091AD059111FCCF92E090934B
:100DD000AD050093AB059FEF9093400510928505FC
:100DE00040938405362FA6E8B5E0FB019E2F931BA8
:100DF000941770F11092AC059091AC05880F892B77
:100E00008093AC058091AA05813029F51092AA053E
:100E10008091AC058093BB008091BC0083FDF8CF2E
:100E200085EC8093BC00222321F08091AD058230B7
:100E3000D1F3809140058F3F91F080914005803241
:100E400081F080914005803371F084E00F91089526
:100E500091919D93CBCF85EEE4CF81E0F7CF80E0F9
:100E6000F5CF82E0F3CF83E0F1CF20916205260F2A
:100E70003327331F21323105ECF42091AD05FC01FD
:100E800090E080E0243069F082E00895A09162054E
:100E90002191AC014C595A4FA40FB52FB11D2C9381
:100EA0000196861798F380916205680F609362053A
:100EB00080E0089581E008959093A7058093A605AA
:100EC00008959093A9058093A805089585ED8093D2
:100ED000BC008091BC0084FDFCCF1092AD0508954C
:100EE00085EC8093BC001092AD0508951F920F927F
:100EF0000FB60F9211240BB60F922F933F934F937F
:100F00005F936F937F938F939F93AF93BF93EF9371
:100F1000FF938091B900887F803609F44CC008F0B7
:100F20003FC0883209F4A8C028F5803109F49CC07C
:100F3000C8F4882309F4F8C0883009F495C0FF91FB
:100F4000EF91BF91AF919F918F917F916F915F9141
:100F50004F913F912F910F900BBE0F900FBE0F90AE
:100F60001F901895883109F487C0803241F780932B
:100F7000400514C0803409F49CC040F48033B9F3B8
:100F80008833E9F680934005ABDFD9CF803509F48B
:100F900084C0883509F495C0883489F697DFCFCFAF
:100FA000883909F48CC038F5883729F050F4883630
:100FB00011F0803721F683E08093AD051092410552
:100FC00057C0883809F47BC0803919F0803809F09F
:100FD000B6CF80914105803208F071C0E0914105A3
:100FE00081E08E0F809341058091BB00F0E0EE5BC5
:100FF000FA4F80833DC0803B39F0E0F4803A09F439
:1010000079C0883A09F09BCF84E08093AD051092B7
:10101000630510926205E091A805F091A905199564
:101020008091620581110FC081E08093620510926A
:10103000640509C0803C09F475C0883C09F472C09D
:10104000883B09F07CCFE091630581E08E0F8093AF
:101050006305F0E0EC59FA4F80818093BB009091DA
:1010600063058091620529C08091AC058093BB0027
:1010700085EC8093BC0063CF9091850580918405B9
:10108000981758F5E091850581E08E0F80938505CE
:10109000F0E0EA57FA4F8081E9CFE091850581E0E1
:1010A0008E0F809385058091BB00F0E0EA57FA4FE0
:1010B000808390918505809184059817C8F285E812
:1010C000D8CFE091850581E08E0F809385058091D2
:1010D000BB00F0E0EA57FA4F80838091AB058111A5
:1010E0005DCF81E08093AA0584EA8093BC001092D2
:1010F000AD0525CFF5DE80914105803230F4E091D9
:101100004105F0E0EE5BFA4F10826091410570E01E
:10111000E091A605F091A70582E495E0199510925B
:1011200041050DCF85ECE1CF1092400537CFFF92FE
:101130000F931F93CF93DF93C62F042FF22E132FFD
:10114000682F8AEE94E044DD6C2F8AEE94E0D7DCC1
:10115000CF2DD12F0C0F1D2F111DC017D10729F036
:1011600069918AEE94E0CBDCF8CF8AEE94E0ADDDB5
:1011700091E0811190E0892FDF91CF911F910F9124
:10118000FF900895CF93DF931F92CDB7DEB74983C9
:101190009E012F5F3F4F41E0CADF0F90DF91CF915B
:1011A00008952F923F924F925F926F927F928F920B
:1011B0009F92AF92BF92CF92DF92EF92FF920F93E6
:1011C0001F93CF93DF9300D0CDB7DEB7E82E6983AE
:1011D0004B8369010E9475274B015C01F12C1A8237
:1011E0002B81222E312C2801712C612C8B81F81639
:1011F00008F044C06E2D8AEE94E0EADC69818AEE44
:1012000094E07DDC8AEE94E060DD6E2D8AEE94E061
:10121000DFDCA1014F1951094132510514F040E2C0
:1012200050E06E2D8AEE94E04EDD8AEE94E007DC0D
:10123000892BD9F00115110569F48AEE94E006DCDA
:10124000F6019A81E90FF11D97FDFA9580839F5F62
:101250009A83EBCF0E947527681979098A099B093F
:10126000641575058605970540F38AEE94E02DDD3B
:101270008B81813208F080E2F80EB8CF011511059C
:10128000C1F00E947527681979098A099B0930E025
:1012900020E0601771078207930758F02A81822F98
:1012A000220F990B2B812817190619F014F08FEFD4
:1012B0008A838A810F900F900F90DF91CF911F91B9
:1012C0000F91FF90EF90DF90CF90BF90AF909F90E5
:1012D0008F907F906F905F904F903F902F900895E8
:1012E0000F931F9389019A0141E05BDF1F910F91DA
:1012F0000895EF92FF920F931F93CF93DF931F9266
:10130000CDB7DEB7182F062FE42EF22E2091000263
:1013100030910102AE014F5F5F4FE2DF81E090E06C
:1013200001C0880FEA94EAF74981FF2069F0482B51
:101330004983602F812F26DF0F90DF91CF911F917E
:101340000F91FF90EF90089580954823F1CFDF92A1
:10135000EF92FF920F931F93CF93DF931F92CDB71E
:10136000DEB7F82EE62E142FD22E209100023091F7
:101370000102AE014F5F5F4FB3DF882351F1812F30
:101380008D19990BAC014F5F5F4F81E090E002C077
:10139000880F991FDA94E2F70197042E01C0880F95
:1013A0000A94EAF701C0000F4A95EAF7482F4095E2
:1013B000998149238023482B49836E2D8F2DE2DEAE
:1013C0000F90DF91CF911F910F91FF90EF90DF90E1
:1013D000089580E0F5CF28E6FC01208308950F935F
:1013E000062F23E042E06AE1FC018081B0DF0F912B
:1013F00008950F93062F22E044E06BE1FC01808109
:10140000A6DF0F9108950F93062F22E044E06CE1D0
:10141000FC0180819CDF0F9108950F931F93CF9360
:10142000DF93EC0100910002109101029C012F5FFB
:101430003F4F42E06BE38881B4DE89819A8198272F
:1014400089279827DF91CF911F910F9108950F93CE
:101450001F93CF93DF93EC010091000210910102E2
:101460009C012F5F3F4F42E06DE388819ADE8981C6
:101470009A81982789279827DF91CF911F910F9103
:1014800008950F931F93CF93DF93EC010091000217
:10149000109101029C012F5F3F4F42E06FE3888172
:1014A00080DE89819A81982789279827DF91CF91BB
:1014B0001F910F9108950F931F93CF93DF93EC012A
:1014C00000910002109101029C012F5F3F4F42E00A
:1014D00063E4888166DE89819A8198278927982725
:1014E000DF91CF911F910F9108950F931F93CF9389
:1014F000DF93EC0100910002109101029C012F5F2B
:101500003F4F42E065E488814CDE89819A819827CB
:1015100089279827DF91CF911F910F9108950F93FD
:101520001F93CF93DF93EC01009100021091010211
:101530009C012F5F3F4F42E067E4888132DE898162
:101540009A81982789279827DF91CF911F910F9132
:101550000895262F46E06BE6FC018081CACE0F93EA
:10156000062F23E042E06BE6FC018081F0DE0F9164
:101570000895CF93DF93EC0161E0F1DF60E0CE01ED
:1015800038DF60E0CE013FDF60E0CE01DF91CF9138
:10159000E0CF8AEE94E00DDB8EEA95E0EADF20E012
:1015A00045E06AE688E6A5DE21E041E067E388E6FB
:1015B000A0DE20E046E06BE688E69BCECF93DF938B
:1015C000EC018EEA95E029DF998388838EEA95E025
:1015D0003EDF9B838A838EEA95E053DF9D838C8375
:1015E000DF91CF910895CF93C82F8AEE94E0E1DA8E
:1015F0006C2F8EEA95E0F3DE8EEA95E0CF91B9CFBD
:10160000CF93DF93EC018EEA95E055DF99838883D1
:101610008EEA95E06ADF9B838A838EEA95E07FDF1E
:101620009D838C83DF91CF9108958EEA95E0D3CE90
:101630009CB1892F807294FF16C0811116C08091D1
:10164000C1059091C205A091C305B091C405019652
:10165000A11DB11D8093C1059093C205A093C30540
:10166000B093C40508958111EACF8091C10590918E
:10167000C205A091C305B091C4050197A109B109A4
:10168000E9CF99B1892F847093FF16C08823B1F0F8
:101690008091CF059091D005A091D105B091D20550
:1016A0000196A11DB11D8093CF059093D005A09305
:1016B000D105B093D2050895882351F38091CF05C9
:1016C0009091D005A091D105B091D2050197A109C3
:1016D000B109E9CF8CB190E09C01220F232F221F8A
:1016E000330B86FF16C08091DD059091DE05A09139
:1016F000DF05B091E005232BB9F40196A11DB11DC2
:101700008093DD059093DE05A093DF05B093E0059F
:1017100008958091DD059091DE05A091DF05B091DF
:10172000E0052130310549F30197A109B109E8CF5E
:101730009CB1892F807195FF16C08823B1F08091EC
:10174000C1059091C205A091C305B091C405019651
:10175000A11DB11D8093C1059093C205A093C3053F
:10176000B093C4050895882351F38091C1059091E9
:10177000C205A091C305B091C4050197A109B109A3
:10178000E9CF99B1892F887092FF16C0811116C0D8
:101790008091CF059091D005A091D105B091D2054F
:1017A0000196A11DB11D8093CF059093D005A09304
:1017B000D105B093D20508958111EACF8091CF056C
:1017C0009091D005A091D105B091D2050197A109C2
:1017D000B109E9CF8CB190E086FB222720F930E0F7
:1017E000880F892F881F990B0197B1F48091DD052F
:1017F0009091DE05A091DF05B091E005232BB1F0BB
:101800000196A11DB11D8093DD059093DE05A09387
:10181000DF05B093E00508958091DD059091DE0528
:10182000A091DF05B091E005232B51F30197A109A9
:10183000B109E9CF1F920F920FB60F9211242F9387
:101840003F934F935F938F939F93AF93BF9383B1D6
:1018500021E030E0982F907285FD02C030E020E05A
:10186000807440910106509102064217530709F017
:1018700062C021E030E0811102C030E020E030930E
:1018800000062093FF05882309F1911121C0809162
:10189000F9059091FA05A091FB05B091FC05019620
:1018A000A11DB11D8093F9059093FA05A093FB0546
:1018B000B093FC058091F9059091FA05A091FB0584
:1018C000B091FC050196A11DB11D20C09111DFCF83
:1018D0008091F9059091FA05A091FB05B091FC0566
:1018E0000197A109B1098093F9059093FA05A09396
:1018F000FB05B093FC058091F9059091FA05A09144
:10190000FB05B091FC050197A109B1098093F90588
:101910009093FA05A093FB05B093FC05BF91AF919E
:101920009F918F915F914F913F912F910F900FBE9B
:101930000F901F901895309302062093010699236B
:1019400071F0882371F08091F9059091FA05A091CA
:10195000FB05B091FC050196A11DB11DC4CF8823E4
:1019600091F38091F9059091FA05A091FB05B09152
:10197000FC050197A109B10995CF1F920F920FB6EF
:101980000F9211248F939F93AF93BF938091060181
:1019900081709091030190FF1EC081111EC0809143
:1019A000EB059091EC05A091ED05B091EE05019647
:1019B000A11DB11D8093EB059093EC05A093ED055F
:1019C000B093EE05BF91AF919F918F910F900FBE95
:1019D0000F901F9018958111E2CF8091EB059091A7
:1019E000EC05A091ED05B091EE050197A109B109B3
:1019F000E1CF1F920F920FB60F9211248F939F93F6
:101A0000AF93BF938091030181709091060190FF85
:101A10001EC08823F1F08091EB059091EC05A09118
:101A2000ED05B091EE050196A11DB11D8093EB056A
:101A30009093EC05A093ED05B093EE05BF91AF91A7
:101A40009F918F910F900FBE0F901F901895882334
:101A500011F38091EB059091EC05A091ED05B0910B
:101A6000EE050197A109B109E1CF0F931F93CF9321
:101A7000DF938C018EE0809FE001819FD00D1124C7
:101A8000C354DA4F798368835B834A838881998161
:101A900060E00E941D298A819B8160E00E941D29CF
:101AA0008881998161E00E9459298A819B8161E046
:101AB0000E9459290230110509F487C064F4011508
:101AC000110501F10130110509F450C0DF91CF91EA
:101AD0001F910F9108950330110509F4A5C004303A
:101AE0001105A1F780916800816080936800809162
:101AF0006B00806280936B0080916B0080648093A8
:101B00006B00E4CF8091BD059091BE0502978431B2
:101B1000910530F582579B4FFC018081082E000C07
:101B2000990B41E050E068E17BE00E9459258091EB
:101B3000BF059091C005029784319105A0F48257AA
:101B40009B4FFC018081082E000C990B41E050E076
:101B500068E97BE0DF91CF911F910F910C9459259B
:101B60008FEF9FEFDECF8FEF9FEFF0CF8091CB0510
:101B70009091CC0502978431910508F582579B4FCF
:101B8000FC018081082E000C990B41E050E061ECD3
:101B90007BE00E9459258091CD059091CE0502975A
:101BA0008431910578F482579B4FFC018081082E87
:101BB000000C990B41E050E061E47BE0CBCF8FEF6C
:101BC0009FEFE3CF8FEF9FEFF5CF8091D9059091F5
:101BD000DA0502978431910508F582579B4FFC0185
:101BE0008081082E000C990B41E050E06AE67BE012
:101BF0000E9459258091DB059091DC050297843184
:101C0000910578F482579B4FFC018081082E000CCF
:101C1000990B41E050E06AEE7BE09CCF8FEF9FEFA5
:101C2000E3CF8FEF9FEFF5CF8091680084608093C2
:101C300068008091680082608093680080916D00E8
:101C4000816080936D0080916C00826080936C0055
:101C50003DCF2EE0269FF001279FF00D1124E35485
:101C6000FA4F64817581868197810895611102C060
:101C70000C941D296130E1F362E0FACF662319F07C
:101C800061E00C94592960E0FCCF0895CF92DF9277
:101C9000EF92FF92CF93882351F16A017B01CFEF3E
:101CA000C80F20E030E0A901CB01B6010E94D2228A
:101CB00087FF11C0C701B60190580E9443239B01C2
:101CC000AC016C2F70E090E080E0CF91FF90EF903E
:101CD000DF90CF90B2C0C701B6010E943E238C2F87
:101CE000CF91FF90EF90DF90CF900C94E327CF91AE
:101CF000FF90EF90DF90CF9008950F931F938B018B
:101D00009C0183E036952795179507958A95D1F71D
:101D10000D5F194F462F477021E030E0F90102C0F6
:101D2000EE0FFF1F4A95E2F7AF01F801208124234F
:101D3000CB010196211102C090E080E01F910F912C
:101D400008950F931F938B019C0183E0369527958F
:101D5000179507958A95D1F7677081E090E001C0EB
:101D6000880F6A95EAF7F801ED5FF94F2081452B5E
:101D700031F48095822380831F910F910895822BE7
:101D8000FACF2F923F924F925F926F927F928F92F3
:101D90009F92AF92BF92CF92DF92EF92FF920F93FA
:101DA0001F93CF93DF93D62EC72E782E692E49012D
:101DB0005A01280161E08D2D0E941D29CD2DDC2DB9
:101DC0008E010F5F1F4FA8016D2D7C2D872D962D45
:101DD000B8DF20E030E0A901C201B7010E94E7248A
:101DE000181664F4C201B7010E9443232B01C501F8
:101DF000B4010E944323A201CE0123D0C801DF9188
:101E0000CF911F910F91FF90EF90DF90CF90BF90F7
:101E1000AF909F908F907F906F905F904F903F908A
:101E20002F900895882341F08150682F70E090E052
:101E300080E050E040E085CF0895862FB9010C94F2
:101E4000E3279C01FC01EE5EFE4FE491E150E2319C
:101E5000E0F4F0E08827E05DF04F8F4F0C94392FCD
:101E6000420F490F4C0F630F780F450F8D0F990FDD
:101E70009D0FB40FC90FDE0FF50F0A10450F1F108D
:101E800036104B1084B5806884BD60E0822F0C94BE
:101E9000592984B58062F8CF809180008C7F826060
:101EA0008093800080918100807E8061682B6093A8
:101EB0008100509387004093860080918000806865
:101EC00080938000E2CF809180008C7F826080933D
:101ED000800080918100807E8061682B609381000A
:101EE0005093870040938600809180008062E8CF05
:101EF000809180008C7F826080938000809181003F
:101F0000807E8061682B60938100509387004093AE
:101F10008600809180008860D3CF8091B000806877
:101F20008093B0008091B100887F682B6093B100EE
:101F3000ACCF8091B0008062F3CF809190008C7F15
:101F400082608093900080919100807E8061682BF8
:101F50006093910050939700409396008091900079
:101F600080688093900091CF809190008C7F8260F8
:101F70008093900080919100807E8061682B6093B7
:101F8000910050939700409396008091900080625A
:101F9000E8CF809190008C7F826080939000809148
:101FA0009100807E8061682B609391005093970030
:101FB00040939600809190008860D3CF8091A000DC
:101FC0008C7F82608093A0008091A100807E8061E0
:101FD000682B6093A1005093A7004093A6008091C6
:101FE000A00080688093A00050CF8091A0008C7FDB
:101FF00082608093A0008091A100807E8061682B28
:102000006093A1005093A7004093A6008091A00088
:102010008062E8CF8091A0008C7F82608093A000D6
:102020008091A100807E8061682B6093A100509315
:10203000A7004093A6008091A0008860D3CF809134
:1020400020018C7F82608093200180912101807E1D
:102050008061682B609321015093270140932601F2
:10206000809120018068809320010FCF8091200112
:102070008C7F82608093200180912101807E80612D
:10208000682B609321015093270140932601809192
:1020900020018062E8CF809120018C7F8260809354
:1020A000200180912101807E8061682B6093210155
:1020B0005093270140932601809120018860D3CF5F
:1020C0008F929F92AF92BF92CF92DF92EF92FF9248
:1020D000CF93DF936B017C0149015A010E94D42008
:1020E000882399F06091BE0A7091BF0A8091C00A5E
:1020F0009091C10ADF91CF91FF90EF90DF90CF9048
:10210000BF90AF909F908F900895C501B4010E9439
:10211000D4208111E7CFC701B6010E94682088232F
:10212000E1F1C501B4010E9468208823B1F120E0EB
:1021300030E0A901C701B6010E94E724CFEFDFEF2D
:10214000181614F4C1E0D0E020E030E0A901C50188
:10215000B4010E94E7246FEF7FEF181614F461E0DA
:1021600070E0072E000C880B990B0E9471236B0105
:102170007C01BE01DD0F880B990B0E947123A70122
:102180009601DF91CF91FF90EF90DF90CF90BF90BD
:10219000AF909F908F900C947F2220E030E0A901B7
:1021A000C501B4010E94D222811116C020E030E0A6
:1021B000A901C701B6010E94E724181694F020E097
:1021C00030E0A901C701B6010E94D22287FD0EC0EE
:1021D00060E070E0CB018ECFA5019401C701B6018C
:1021E000D0CF6BED7FE089EC9FE384CF6BED7FE098
:1021F00089EC9FEB7FCF2F923F924F925F926F922D
:102200007F928F929F92AF92BF92CF92DF92EF9286
:10221000FF920F931F93CF93DF93CDB7DEB7C254D6
:10222000D1090FB6F894DEBF0FBECDBF80919C0AD6
:1022300090919D0A9E878D8720909A0A30909B0AE4
:10224000E091A106F091A206C080D180E280F380E7
:10225000A7019601D1016D917D918D919C910E9474
:10226000E72410E000E087FF3DC0A7019601F101DF
:1022700064857585868597850E94D22202E010E0EC
:10228000181684F50091A80A1091A90A5801AA0C01
:10229000BB1CAA0CBB1C41018A0C9B1CA70196010C
:1022A000D4016D917D918D919C910E94E724B4E0C1
:1022B000AB0EB11CA20CB31C181614F00C94351CF8
:1022C000E4E08E1A9108A7019601D40114966D914D
:1022D0007D918D919C9117970E94E724181614F414
:1022E0000C942F1C1093A90A0093A80A000F111F29
:1022F000000F111FF101E00FF11F4080518062803B
:102300007380C80104969E8B8D8BFC01E20DF31D3A
:1023100080819181A281B381898B9A8BAB8BBC8B9D
:102320009C01AD01C301B2010E94D22281110C9423
:102330004A1CA3019201C701B6010E94D22287FD67
:1023400002C00C94421CAD85BE850A0F1B1FF8010C
:1023500080819181A281B38180935C0990935D0912
:10236000A0935E09B0935F0961E070E080E090E0C7
:1023700070DC4B015C012091660330916703409152
:102380006803509169036BED7FE089EC90EC0E944B
:10239000D6226B017C01C501B4010E9471239B010F
:1023A000AC01C701B6010E94F22420915E03309176
:1023B0005F0340916003509161030E94F224609397
:1023C0006009709361098093620990936309809119
:1023D000960A9091970AA091980AB091990A8093D1
:1023E000640990936509A0936609B0936709CE01CB
:1023F000079606D9CE010196E1D86F817885072E20
:10240000000C880B990B0E94712320916E03309170
:102410006F0340917003509171030E940B22209131
:1024200062033091630340916403509165030E94FD
:10243000D6222091920330919303409194035091BE
:1024400095030E94F22420915A0330915B0340913E
:102450005C0350915D0350580E94F224209164095E
:102460003091650940916609509167090E940C22DC
:1024700020919603309197034091980350919903CE
:102480000E94F2244B015C01C0904E03D0904F0398
:10249000E0905003F09051036B817C81072E000C7B
:1024A000880B990B0E94712320916A0330916B0372
:1024B00040916C0350916D030E940B22A70196017D
:1024C0000E94D62220919E0330919F034091A00349
:1024D0005091A1030E94F2242091A2033091A30302
:1024E0004091A4035091A5030E94F2242B013C01CA
:1024F0006D817E81072E000C880B990B0E94712341
:10250000209152033091530340915403509155034D
:102510000E940B22A70196010E94D62220919A03C5
:1025200030919B0340919C0350919D030E94F224A3
:10253000A3019201C5DD2091A6033091A70340912C
:10254000A8035091A9030E94F224A50194010E94BE
:102550000C22609368097093690980936A099093CB
:102560006B092091560330915703409158035091C5
:1025700059030E940B226D8B7E8B8F8B988F6093FB
:102580006C0970936D0980936E0990936F09809127
:102590005C0990915D09A0915E09B0915F09898BFA
:1025A0009A8BAB8BBC8B20914A0330914B034091AB
:1025B0004C0350914D03BC01CD010E94F2246D8764
:1025C0007E878F87988B6093DC097093DD098093F9
:1025D000DE099093DF09C0906009D0906109E09016
:1025E0006209F09063092091AA033091AB034091F6
:1025F000AC035091AD03C701B6010E94F22469AF4C
:102600007AAF8BAF9CAF2091720A3091730A4091E0
:10261000740A5091750A0E940B22698F7A8F8B8FF2
:102620009C8F6093700970937109809372099093E5
:1026300073092091AE033091AF034091B0035091E4
:10264000B1036D897E898F89988D0E94F22421962D
:102650006CAF7DAF8EAF9FAF21972091760A3091FE
:10266000770A4091780A5091790A0E940B226D8F67
:102670007E8F8F8F98A360937409709375098093F0
:1026800076099093770920917A0A30917B0A4091DC
:102690007C0A50917D0A6091B6037091B7038091D6
:1026A000B8039091B9030E94F22420E030E0A90120
:1026B0000E940C2220E030E0A9010E940C2220E0C0
:1026C00030E0A9010E940C2269A37AA38BA39CA3EA
:1026D000609378097093790980937A0990937B09C4
:1026E00020917E0A30917F0A4091800A5091810AA0
:1026F0006091D2037091D3038091D4039091D5035C
:102700000E94F22420E030E0A9010E940C2220E087
:1027100030E0A9010E940C2220E030E0A9010E94D3
:102720000C2269A77AA78BA79CA760937C0970935A
:102730007D0980937E0990937F092091820A3091D0
:10274000830A4091840A5091850A6091EE0370914A
:10275000EF038091F0039091F1030E94F22420E0B6
:1027600030E0A9010E940C2220E030E0A9010E9483
:102770000C226DA77EA78FA798AB609380097093FA
:10278000810980938209909383092091860A309170
:10279000870A4091880A5091890A60910A047091D1
:1027A0000B0480910C0490910D040E94F22420E00F
:1027B00030E0A9010E940C2269AB7AAB8BAB9CABD9
:1027C00060938409709385098093860990938709A3
:1027D00020918A0A30918B0A40918C0A50918D0A7F
:1027E0006091160470911704809118049091190457
:1027F0000E94F22420E030E0A9010E940C2220E097
:1028000030E0A9010E940C222B013C014092880972
:102810005092890960928A0970928B091092F4098A
:102820001092F5091092F6091092F70920918E0A7C
:1028300030918F0A4091900A5091910A60912E0434
:1028400070912F0480913004909131040E94F22401
:1028500020E030E0A9010E940C2220E030E0A90134
:102860000E940C224B015C0180928C0990928D0990
:10287000A0928E09B0928F091092F0091092F1097E
:102880001092F2091092F3092091920A3091930A62
:102890004091940A5091950A6091460470914704C2
:1028A00080914804909149040E94F2246093EC09BD
:1028B0007093ED098093EE099093EF0920E030E0EA
:1028C000A9010E940C226DA37EA38FA398A76093F9
:1028D00090097093910980939209909393092091A4
:1028E000FA023091FB024091FC025091FD02C701B7
:1028F000B6010E94F224A30192010E940C226DAB4A
:102900007EAB8FAB98AF6093E0097093E109809341
:10291000E2099093E3092091FE023091FF02409179
:10292000000350910103C701B6010E94F224A501E2
:1029300094010E940C224B015C018092E409909268
:10294000E509A092E609B092E709209102033091CF
:1029500003034091040350910503C701B6010E948F
:10296000F2242DA13EA14FA158A50E940C226DA3D7
:102970007EA38FA398A76093E8097093E9098093D9
:10298000EA099093EB0946E0242E43E0342EA4E9B3
:10299000B9E02396BFAFAEAF23978101B4E02B0E11
:1029A000311CF80120A131A142A153A1C501B401FC
:1029B0000E94F2242B013C01D80150962D913D91AB
:1029C0004D915C9153976DA97EA98FA998AD0E94F6
:1029D000F2249B01AC01C301B2010E940C222B0125
:1029E0003C01F80120A931A942A953A96DA17EA1FA
:1029F0008FA198A50E94F2249B01AC01C301B201F2
:102A00000E940C222B013C01D8012D913D914D914A
:102A10005C91C701B6010E94F2249B01AC01C30185
:102A2000B2010E940C222396EEADFFAD2397619375
:102A30007193819391932396FFAFEEAF239786E135
:102A400093E08215930509F0A8CF80916B04813043
:102A500009F07AC7C0924C09D0924D09E0924E0914
:102A6000F0924F09898D9A8DAB8DBC8D8093500962
:102A700090935109A0935209B09353098D899E896F
:102A8000AF89B88D8093540990935509A093560946
:102A9000B09357098D8D9E8DAF8DB8A18093580945
:102AA00090935909A0935A09B0935B0920914C095E
:102AB00030914D0940914E0950914F096D857E85A9
:102AC0008F8598890E940C22209182023091830286
:102AD00040918402509185020E94F2246B017C0196
:102AE0002091500930915109409152095091530958
:102AF0006D857E858F8598890E940C2220918602A3
:102B00003091870240918802509189020E94F224FC
:102B10009B01AC01C701B6010E940C226B017C0134
:102B20002091540930915509409156095091570907
:102B30006D857E858F8598890E940C2220918A025E
:102B400030918B0240918C0250918D020E94F224B0
:102B50009B01AC01C701B6010E940C226B017C01F4
:102B6000209158093091590940915A0950915B09B7
:102B70006D857E858F8598890E940C2220918E021A
:102B800030918F0240919002509191020E94F22464
:102B90009B01AC01C701B6010E940C226B017C01B4
:102BA00060914603709147038091480390914903D7
:102BB000905829893A894B895C890E94F2249B01AB
:102BC000AC01C701B6010E940C226B017C016D892A
:102BD0007E898F89988D9F7720E030E040E45FE325
:102BE0000E94D22220E030E040E85FE387FD03C08E
:102BF00020E030E0A901C701B6010E94F2246093F1
:102C0000A4097093A5098093A6099093A709E09160
:102C1000A106F091A20620915204309153044091F4
:102C200054045091550460817181828193810E9486
:102C3000F2246B017C01C092DC09D092DD09E092A4
:102C4000DE09F092DF090E94AC239B01AC01C701B1
:102C5000B6010E940B229B01AC010E940C229B0139
:102C6000AC0160E070E080E89FE30E940B222091BD
:102C70004E0430914F0440915004509151040E94F1
:102C8000F2249B01AC012093A8093093A909409339
:102C9000AA095093AB096BE279E08FEF9FEF0E9496
:102CA000D520892B09F4E0C0C0908203D090830323
:102CB000E0908403F0908503A701960160911E0ABD
:102CC00070911F0A8091200A9091210A0E94D222BD
:102CD000882341F0C0921E0AD0921F0AE092200A77
:102CE000F092210A8091560490915704A0915804C3
:102CF000B091590480932C0990932D09A0932E092B
:102D0000B0932F098091600990916109A0916209A7
:102D1000B09163098093300990933109A0933209EF
:102D2000B09333098091940990919509A0919609E7
:102D3000B09197098093340990933509A09336098F
:102D4000B09337098091780990917909A0917A0917
:102D5000B0917B098093380990933909A0933A097F
:102D6000B0933B0980916C0990916D09A0916E0917
:102D7000B0916F0980933C0990933D09A0933E095F
:102D8000B0933F0980919C0990919D09A0919E0963
:102D9000B0919F098093400990934109A093420903
:102DA000B09343098091800990918109A091820993
:102DB000B09183098093440990934509A0934609F3
:102DC000B09347098091A4099091A509A091A60903
:102DD000B091A7098093480990934909A0934A09A3
:102DE000B0934B096091320A7091330A8091340A92
:102DF0009091350A0E944323C62E60912A0A709151
:102E00002B0A80912C0A90912D0A0E944323E62ED2
:102E100060912E0A70912F0A8091300A9091310AA8
:102E20000E944323062F6091260A7091270A809101
:102E3000280A9091290A0E944323162F6091220AA2
:102E40007091230A8091240A9091250A0E944323BD
:102E5000862F912C812C32E0A32E212F48E050E0C8
:102E60006CE279E00E9463018091E4099091E509A8
:102E7000A091E609B091E709898F9A8FAB8FBC8F3B
:102E80008091E0099091E109A091E209B091E309F4
:102E90008D8F9E8FAF8FB8A38091E8099091E9093B
:102EA000A091EA09B091EB0989A39AA3ABA3BCA3B3
:102EB00080916C0990916D09A0916E09B0916F0994
:102EC0008D8B9E8BAF8BB88F4090600950906109BD
:102ED00060906209709063098091A4099091A5099E
:102EE000A091A609B091A7098D879E87AF87B88B5F
:102EF00022EB222E22E0322EACEAB9E0BA8BA98B6B
:102F00008101B4E02B0E311CF801248535854685FE
:102F10005785698D7A8D8B8D9C8D0E94F2246B0173
:102F20007C01D8012D913D914D915C916D8D7E8DEF
:102F30008F8D98A10E94F2249B01AC01C701B601BC
:102F40000E940C226B017C01F1012489358946899C
:102F5000578969A17AA18BA19CA10E94F2249B01AF
:102F6000AC01C701B6010E940C226B017C01D101AA
:102F7000D8962D913D914D915C91DB976D897E891D
:102F80008F89988D0E94F2244B015C01F10124A5E8
:102F900035A546A557A5C301B2010E94F2249B01A5
:102FA000AC01C501B4010E940C224B015C01D101AE
:102FB00090962D913D914D915C9193976D857E8575
:102FC0008F8598890E94F2249B01AC01C501B40150
:102FD0000E940C229B01AC01C701B6010E940C2289
:102FE000E989FA896193719381939193FA8BE98BC3
:102FF0008EEB92E08215930509F082CF80917809DB
:1030000090917909A0917A09B0917B09898B9A8B6B
:10301000AB8BBC8B80934C0990934D09A0934E09C8
:10302000B0934F0980917C0990917D09A0917E0910
:10303000B0917F09898F9A8FAB8FBC8F8093500995
:1030400090935109A0935209B0935309809180093C
:1030500090918109A0918209B09183098D8F9E8FF3
:10306000AF8FB8A38093540990935509A093560944
:10307000B09357098091840990918509A0918609A0
:10308000B091870989A39AA3ABA3BCA380935809E5
:1030900090935909A0935A09B0935B091092DC09E7
:1030A0001092DD091092DE091092DF090CE419E09C
:1030B00092E2292E92E0392EC12CD12C76015101B9
:1030C000D8016D917D918D919D918D01F101E05B14
:1030D000FF4F20813181428153810E94F2249B0164
:1030E000AC01C701B6010E940C226B017C01B4E067
:1030F0002B0E311CF801E459FF4FFAA7E9A7D501BF
:103100002D913D914D915C9169897A898B899C893A
:103110000E94F22420E030E0A9010E940C224B0121
:103120005C01F1012485358546855785698D7A8D49
:103130008B8D9C8D0E94F2249B01AC01C501B401D2
:103140000E940C224B015C01D1015C962D913D91B6
:103150004D915C915F976D8D7E8D8F8D98A10E94B2
:10316000F2249B01AC01C501B4010E940C224B0169
:103170005C01F10124A535A546A557A569A17AA151
:103180008BA19CA10E94F2249B01AC01C501B4015A
:103190000E940C22A9A5BAA56D937D938D939C9353
:1031A0001397E2E3F2E0E215F30509F088CFC0924D
:1031B000B809D092B909E092BA09F092BB09A70107
:1031C0009601C301B2010E940B222B013C014092E7
:1031D000DC095092DD096092DE097092DF09A701D7
:1031E00096016D897E898F89988D0E940B226B01D3
:1031F0007C01C092E009D092E109E092E209F092EC
:10320000E30902E612E08CEB282E89E0382EF80163
:1032100081919191A191B1918F018D8B9E8BAF8BFB
:10322000B88FF10181919191A191B1911F01898B89
:103230009A8BAB8BBC8BD801DC962D913D914D9137
:103240005C91DF97C701B6010E94F2244B015C013B
:10325000F80124A535A546A557A5C301B2010E94D2
:10326000F2249B01AC01C501B4010E940C224B0168
:103270005C012D893E894F89588D6D857E858F85AE
:1032800098890E94F2249B01AC01C501B4010E94FF
:103290000C2229893A894B895C890E940C22D10130
:1032A0001C966D937D938D939C931F97E2E7F2E0BC
:1032B000E017F10709F0ABCF209186033091870327
:1032C00040918803509189036D857E858F8598890B
:1032D0000E94D222682F661F6627661F88E00E9420
:1032E0003E0E60914C0A70914D0A80914E0A909169
:1032F0004F0A0E947D0E90934B0A80934A0AC09019
:10330000A409D090A509E090A609F090A7098090A3
:103310007A0390907B03A0907C03B0907D03A5017D
:103320009401C701B6010E94E72418160CF072C37D
:103330008092DC099092DD09A092DE09B092DF094B
:103340002091DC093091DD094091DE095091DF09BF
:1033500060915E0470915F048091600490916104BB
:103360000E94F2240E94AC236B017C0103D78111DF
:1033700069C3C701B601D5D6811164C320E030E02E
:1033800040E853E4C701B6010E94C6236B017C01EB
:1033900020E030E0A9010E94D22287FF56C3C70176
:1033A000B60190580E944323619570E090E080E060
:1033B0000E947123AB01BC0180914A0A90914B0A93
:1033C0000E94460E20918A0330918B0340918C031A
:1033D00050918D036091A4097091A5098091A6096F
:1033E0009091A7090E94D222682F661F6627661F48
:1033F00085E00E943E0E6091400A7091410A8091E2
:10340000420A9091430A0E947D0E90933F0A809356
:103410003E0AC090A409D090A509E090A609F090BA
:10342000A70980907E0390907F03A0908003B090C6
:103430008103A5019401C701B6010E94E724181673
:103440000CF007C38092DC099092DD09A092DE099E
:10345000B092DF092091DC093091DD094091DE094D
:103460005091DF096091660470916704809168044F
:10347000909169040E94F2240E94AC236B017C01AC
:1034800079D68111FEC2C701B6014BD68111F9C2AE
:1034900020E030E040E853E4C701B6010E94C623B3
:1034A0006B017C0120E030E0A9010E94D22287FF5D
:1034B000EBC2C701B60190580E944323619570E0AA
:1034C00090E080E00E947123AB01BC0180913E0A34
:1034D00090913F0A0E94460E809168099091690977
:1034E000A0916A09B0916B098093960A9093970A0C
:1034F000A093980AB093990A89AD9AADABADBCADD3
:103500008093720A9093730AA093740AB093750A19
:1035100021968CAD9DADAEADBFAD21978093760A5F
:103520009093770AA093780AB093790A20917A0A47
:1035300030917B0A40917C0A50917D0A6091B203E0
:103540007091B3038091B4039091B5030E94F2246B
:103550002091CC093091CD094091CE095091CF09ED
:103560005BD760937A0A70937B0A80937C0A90936E
:103570007D0A20917E0A30917F0A4091800A509105
:10358000810A6091CE037091CF038091D003909116
:10359000D1030E94F2242091D0093091D1094091A9
:1035A000D2095091D30938D760937E0A70937F0A6D
:1035B0008093800A9093810A2091820A3091830A35
:1035C0004091840A5091850A6091EA037091EB035F
:1035D0008091EC039091ED030E94F2242091D40994
:1035E0003091D5094091D6095091D70915D76093EC
:1035F000820A7093830A8093840A9093850A2091AB
:10360000860A3091870A4091880A5091890A609110
:1036100006047091070480910804909109040E94A7
:10362000F2242091D8093091D9094091DA095091BA
:10363000DB09F2D66093860A7093870A8093880A22
:103640009093890A20918A0A30918B0A40918C0AC2
:1036500050918D0A609112047091130480911404AA
:10366000909115040E94F2242091AC093091AD098B
:103670004091AE095091AF09CFD660938A0A7093FA
:103680008B0A80938C0A90938D0A20918E0A309138
:103690008F0A4091900A5091910A60912A0470918A
:1036A0002B0480912C0490912D040E94F2242091EF
:1036B000B0093091B1094091B2095091B309ACD62B
:1036C00060938E0A70938F0A8093900A9093910A68
:1036D0002091920A3091930A4091940A5091950A50
:1036E0006091420470914304809144049091450498
:1036F0000E94F2242091B4093091B5094091B60995
:103700005091B70989D66093920A7093930A809377
:10371000940A9093950AC0908B06D0908C06E09006
:103720008D06F0908E069FEFC91AD90AE90AF90AA8
:10373000C0928B06D0928C06E0928D06F0928E0697
:10374000C114D104E104F10499F480918F069091A1
:103750009006A0919106B09192060196A11DB11D0F
:1037600080938F0690939006A0939106B093920653
:103770008090930690909406A0909506B09096063F
:103780000091A1061091A20660918F06709190069B
:103790008091910690919206A2D7A50194010E9472
:1037A000F22420E030E040E85FE40E94F2242B01A4
:1037B0003C01C701B60193D7A50194010E94F224F0
:1037C0009B01AC01C301B20127D6D8016D937D9353
:1037D0008D939C9313978091970690919806A09152
:1037E0009906B0919A060196A11DB11D8093970686
:1037F00090939806A0939906B0939A06892B8A2BEA
:103800008B2B99F480919B0690919C06A0919D062C
:10381000B0919E060196A11DB11D80939B069093C9
:103820009C06A0939D06B0939E06CE5BDF4F0FB61D
:10383000F894DEBF0FBECDBFDF91CF911F910F91E6
:10384000FF90EF90DF90CF90BF90AF909F908F90C0
:103850007F906F905F904F903F902F900895015010
:1038600011090C9460110F5F1F4FF5016191719167
:10387000819191915F01A701960194D618169CF74A
:103880000C947211ED85FE858D899E89E80FF91FD4
:103890000C94A811AD85BE850A0F1B1FF80180800E
:1038A0009180A280B380FD018D899E89E80FF91F68
:1038B00080819181A281B3818D879E87AF87B88BEC
:1038C0009C01AD01C501B4016DD6882399F1A70112
:1038D000960169897A898B899C899DD56B017C01C8
:1038E000A301920169897A898B899C8994D59B016E
:1038F000AC01C701B6015AD66B017C01AC019B013A
:1039000060E070E080E89FE386D52D853E854F8599
:1039100058890E94F2242B013C01A5019401C701A2
:10392000B6010E94F2249B01AC01C301B20174D51F
:103930004B015C0180925C0990925D09A0925E0946
:10394000B0925F090C94B41180916A04813049F5FA
:1039500089A19AA1ABA1BCA180934C0990934D0978
:10396000A0934E09B0934F0989A59AA5ABA5BCA514
:103970008093500990935109A0935209B093530931
:103980008DA59EA5AFA5B8A980935409909355091C
:10399000A0935609B093570989A99AA9ABA9BCA9C4
:1039A0007DC88091940990919509A0919609B09154
:1039B000970980934C0990934D09A0934E09B093B9
:1039C0004F098091980990919909A0919A09B09115
:1039D0009B098093500990935109A0935209B09389
:1039E000530980919C0990919D09A0919E09B091E5
:1039F0009F098093540990935509A0935609B09359
:103A000057098091A0099091A109A091A209B091B4
:103A1000A30944C880905A0490905B04A0905C0471
:103A2000B0905D04A5019401C701B601BBD587FD27
:103A30007FCCC092DC09D092DD09E092DE09F092E1
:103A4000DF097ECCC12CD12C7601C701B6011BD673
:103A5000ACCC8090620490906304A0906404B09019
:103A60006504A5019401C701B6019CD587FDEACC88
:103A7000C092DC09D092DD09E092DE09F092DF0904
:103A8000E9CCC12CD12C7601C701B601FCD517CDEC
:103A90004F925F926F927F92AF92BF92CF92DF92DE
:103AA000EF92FF920F931F93CF93DF9384E090E008
:103AB000D8D28091B60A9091B70AA091B80AB09175
:103AC000B90A8093560490935704A0935804B09376
:103AD0005904ECE0F6E08FE9DF011D928A95E9F7E1
:103AE0008FE996E095838483C1EAD6E0D7AFC6AF6D
:103AF00003E916E0138B028BF0937506E0937406CE
:103B0000F383E28321E030E0DC012D933C9382EAF1
:103B100094E09187808783EA96E0998388834AE0DE
:103B200057ED63E27CE3F801408351836283738342
:103B3000ECE2F9E08CECDF011D928A95E9F708EFE1
:103B400019E08AEBF80111928A95E9F782E192E097
:103B500090939B0A80939A0A82E092E090939D0A48
:103B600080939C0AC1E0C093AF0A412C512C3201D2
:103B700043944092570A5092580A6092590A7092A0
:103B80005A0A42E150E063E170E081E090E00E9477
:103B9000350DC0935B0A10925C0AC093AE0A409246
:103BA0005D0A50925E0A60925F0A7092600A90E02D
:103BB00080E00E94F30AC093610A1092500AC093F9
:103BC000B00A4092510A5092520A6092530A70927F
:103BD000540A0E94C90AC093550AD8011C92C09386
:103BE000B10A8091820390918303A0918403B091E4
:103BF0008503F80186A397A3A0A7B1A741825282AB
:103C00006382748212A613A614A615A680E090E023
:103C1000A0E8B0E486A797A7A0ABB1AB80E090E0A6
:103C2000A0ECB0E482AB93ABA4ABB5AB16AA17AAD9
:103C300010AE11AE12AE13AE14AE15AE80E00E94FF
:103C40004401D8011596CC9310926A0AC093AD0A2C
:103C500040926B0A50926C0A60926D0A70926E0AE2
:103C600061E088E00E94360EC0936F0A1092440A09
:103C7000C093AC0A9CE4A92E9AE0B92E86E090E0AD
:103C8000A0E0B0E0F50180839183A283B38329E4AF
:103C9000C22E2AE0D22ED6011C924092450A5092A2
:103CA000460A6092470A7092480AE12CF12C87017B
:103CB000A801970166E070E080E090E00E94C10EEC
:103CC0000AE41AE0F80191838083D5016D917D911A
:103CD0008D919C910E947D0EF801918380830E94BA
:103CE000450ED601CC931092620AC093AB0A409263
:103CF000630A5092640A6092650A7092660A61E0F3
:103D000085E00E94360EC093670A1092380AC0936D
:103D1000AA0A30E4C32E3AE0D32E82E090E0A0E07D
:103D2000B0E0F60180839183A283B3834DE3A42E98
:103D30004AE0B42ED5011C924092390A50923A0AB8
:103D400060923B0A70923C0AE12CF12C8701A80199
:103D5000970162E070E080E090E00E94C10E0EE307
:103D60001AE0F80191838083D6016D917D918D9148
:103D70009C910E947D0EF801918380830E94450EE4
:103D8000D501CC9383E080932B0980918E03909191
:103D90008F03A0919003B09191038093960A909322
:103DA000970AA093980AB093990A80917203909110
:103DB0007303A0917403B09175038093720A90937A
:103DC000730AA093740AB093750A80917603909158
:103DD0007703A0917803B09179038093760A90934A
:103DE000770AA093780AB093790A8091BA039091E8
:103DF000BB03A091BC03B091BD0380937A0A90935A
:103E00007B0AA0937C0AB0937D0A8091D60390919F
:103E1000D703A091D803B091D90380937E0A9093E1
:103E20007F0AA093800AB093810A8091F203909157
:103E3000F303A091F403B091F5038093820A909369
:103E4000830AA093840AB093850A80910E0490910E
:103E50000F04A0911004B09111048093860A9093EE
:103E6000870AA093880AB093890A80911A049091D6
:103E70001B04A0911C04B0911D0480938A0A9093A6
:103E80008B0AA0938C0AB0938D0A80913204909192
:103E90003304A0913404B091350480938E0A90933A
:103EA0008F0AA093900AB093910A80914A0490914E
:103EB0004B04A0914C04B0914D048093920A9093CE
:103EC000930AA093940AB093950ADF91CF911F9122
:103ED0000F91FF90EF90DF90CF90BF90AF907F90C9
:103EE0006F905F904F9008958091560A811103C0A2
:103EF00081E08093560A80915C0A811103C081E0C1
:103F000080935C0A8091500A811103C081E0809304
:103F1000500A8091F809811103C081E08093F8096B
:103F200080916A0A811103C081E080936A0A8091BE
:103F3000440A811136C081E08093440A8091450A89
:103F40009091460AA091470AB091480A0197A105AD
:103F5000B10539F58091490A882319F160914C0A1D
:103F600070914D0A80914E0A90914F0A0E947D0EE9
:103F700090934B0A80934A0A40E050E0BA010E94B5
:103F8000460E60914C0A70914D0A80914E0A9091B4
:103F90004F0A0E947D0E90934B0A80934A0A0E941A
:103FA000120F8091620A811103C081E08093620A3E
:103FB0008091380A811136C081E08093380A80915F
:103FC000390A90913A0AA0913B0AB0913C0A0197B4
:103FD000A105B10539F580913D0A882319F1609159
:103FE000400A7091410A8091420A9091430A0E94CE
:103FF0007D0E90933F0A80933E0A40E050E0BA0164
:104000000E94460E6091400A7091410A8091420AD6
:104010009091430A0E947D0E90933F0A80933E0A3E
:104020000C94120F089560E070E080E89FE7089517
:1040300060E070E080E89FE7089560E070E080E86D
:104040009FEF089560E070E080E89FEF089560E0E2
:1040500070E080EC9FEF089560E070E080EC9FEFEF
:104060000895F5DF6093BE0A7093BF0A8093C00A7B
:104070009093C10AF1DF6093B20A7093B30A809300
:10408000B40A9093B50ACFDF6093BA0A7093BB0A63
:104090008093BC0A9093BD0ACBDF6093B60A7093FD
:1040A000B70A8093B80A9093B90AC7DF6093C20A2F
:1040B0007093C30A8093C40A9093C50AC3DF6093C8
:1040C000C60A7093C70A8093C80A9093C90A0895D4
:1040D000CF92DF92EF92FF92CF936B017C01AC0104
:1040E0009B016091BA0A7091BB0A8091BC0A9091C1
:1040F000BD0A58D2C1E0882369F0A70196016091FA
:10410000C20A7091C30A8091C40A9091C50A4AD22A
:104110008111C0E08C2FCF91FF90EF90DF90CF9076
:104120000895CF92DF92EF92FF92CF936B017C01C3
:10413000AC019B016091B60A7091B70A8091B80AF0
:104140009091B90A2FD2C1E0882369F0A7019601A6
:104150006091C60A7091C70A8091C80A9091C90AF5
:1041600021D28111C0E08C2FCF91FF90EF90DF9092
:10417000CF9008950F931F938B019C010027112767
:1041800020783F770115110520483F4749F4AB01DE
:10419000BC016F77772781E0452B462B472B09F42D
:1041A00080E01F910F910895E5CF8F929F92AF927B
:1041B000BF92EF92FF920F931F93CF93DF93EC0187
:1041C0008B0149015A01FB01E080FE2DF370FF2EA7
:1041D00020E030E0A901C501B401F9D318160CF4B0
:1041E00040C020E030E0A901C501B401DBD187FD6A
:1041F0003AC080E094E0F99EF0011124E754FB4FAF
:10420000E80FF11D9081219620E0C330D10518F40C
:10421000CA54DB4F2881292349F0E694E694E1FE55
:1042200002C092FD03C0E4FE02C095FD90E0292F7C
:10423000220F220F822BF8018083892F8873A9F423
:10424000977081E020E009F480E0922FDF91CF9118
:104250001F910F91FF90EF90BF90AF909F908F9024
:10426000089581E0C7CF82E0C5CF8FEF9FEFEECFFB
:1042700040E855E260E070E090E080E007D061E067
:104280008DE0DBD760E08DE00C94592981309105F9
:1042900079F01CF4892B39F008958230910561F092
:1042A000039771F0089526E087EB96E00C94502A6E
:1042B00026E084E597E0FACF26E081EF97E0F6CF9D
:1042C00026E08EE898E0F2CF1F920F920FB60F9281
:1042D00011240BB60F922F933F934F935F936F93DD
:1042E0007F938F939F93AF93BF93EF93FF938FE849
:1042F0009DEF90932501809324018091AC069091CD
:10430000AD06019719F461E08DE0D3D734D0FF9169
:10431000EF91BF91AF919F918F917F916F915F913D
:104320004F913F912F910F900BBE0F900FBE0F90AA
:104330001F9018958FE89DEF90932501809324019D
:10434000A3E7B0E08C918E7F8C93E0E2F1E0808176
:104350008C7F8083E1E2F1E08081877E80838081B1
:104360008460808380818C7F80838C9181608C933A
:10437000089581E008958091AB0691E0980F9093A5
:10438000AB06882349F021E030E03093AD0620935E
:10439000AC068093AB06089578940E94FB10F894C5
:1043A0008091AB068150F5CFCF93DF931092CB0A6B
:1043B0001092CA0AA6D55CDFC091B404D091B504AE
:1043C0001982188265DBF894B5DF81E02881398194
:1043D000232B09F080E08093CA0A78947894809126
:1043E000CA0A811107C080DDF89490E080E0DF9177
:1043F000CF91089581E028813981232B09F480E051
:104400008093CB0A9091CB0A81E0911180E0809358
:10441000CA0AAFDFE4CF5058BB27AA270ED086C206
:1044200077D230F07CD220F031F49F3F11F41EF4AB
:1044300047C20EF4E095E7FB14C2E92F88D280F35F
:10444000BA17620773078407950718F071F49EF591
:10445000B7C20EF4E0950B2EBA2FA02D0B01B901B7
:1044600090010C01CA01A0011124FF27591B99F0EA
:10447000593F50F4503E68F11A16F040A22F232FF6
:10448000342F4427585FF3CF469537952795A79546
:10449000F0405395C9F77EF41F16BA0B620B730BED
:1044A000840BBAF09150A1F0FF0FBB1F661F771F5E
:1044B000881FC2F70EC0BA0F621F731F841F48F413
:1044C000879577956795B795F7959E3F08F0B3CF99
:1044D0009395880F08F09927EE0F97958795089583
:1044E00017D258F080E891E009F49EEF18D228F036
:1044F00040E851E059F45EEF09C0E2C161C2E92F22
:10450000E07825D268F3092E052AC1F3261737076C
:104510004807590738F00E2E07F8E02569F0E02526
:10452000E0640AC0EF6307F8009407FADB01B90101
:104530009D01DC01CA01AD01EF9347D0F7D10AD04C
:104540005F91552331F02BED3FE049E450FD49ECFC
:1045500063CF0895DF93DD27B92FBF7740E85FE38E
:104560001616170648075B0710F4D92F34D29F930D
:104570008F937F936F9399D2E4EEF0E0A4D1D6D1DC
:104580002F913F914F915F9139D2DD2349F090589F
:10459000A2EA2AED3FE049EC5FE3D0785D274DDFEA
:1045A000DF91C4C13AD108F481E008950CD0BEC1B6
:1045B000B6D140F0ADD130F021F45F3F19F051C1D8
:1045C0005111FFC17DC1C3D198F39923C9F355237C
:1045D000B1F3951B550BBB27AA27621773078407F6
:1045E00038F09F5F5F4F220F331F441FAA1FA9F3AC
:1045F00033D00E2E3AF0E0E830D091505040E6959E
:10460000001CCAF729D0FE2F27D0660F771F881FFE
:10461000BB1F261737074807AB07B0E809F0BB0BED
:10462000802DBF01FF2793585F4F2AF09E3F510511
:1046300068F017C1C6C15F3FECF3983EDCF3869586
:1046400077956795B795F7959F5FC9F7880F911D87
:104650009695879597F90895E1E0660F771F881F73
:10466000BB1F621773078407BA0720F0621B730B26
:10467000840BBA0BEE1F88F7E095089504D0689478
:10468000B1119FC108956BD188F09F5790F0B92F59
:104690009927B751A0F0D1F0660F771F881F991F97
:1046A0001AF0BA95C9F712C0B13081F089D1B1E0E2
:1046B000089586C1672F782F8827B85F39F0B93FF2
:1046C000CCF3869577956795B395D9F73EF4909599
:1046D0008095709561957F4F8F4F9F4F0895E89417
:1046E00009C097FB3EF490958095709561957F4F3A
:1046F0008F4F9F4F9923A9F0F92F96E9BB279395E8
:10470000F695879577956795B795F111F8CFFAF4F7
:10471000BB0F11F460FF1BC06F5F7F4F8F4F9F4F28
:1047200016C0882311F096E911C0772321F09EE886
:10473000872F762F05C0662371F096E8862F70E0EC
:1047400060E02AF09A95660F771F881FDAF7880FC6
:104750009695879597F908951CD180F09F3740F47E
:1047600091110EF02EC160E070E080E89FEB08959B
:1047700026F41B16611D711D811D79C093C0C8D020
:1047800018F011F0CCD038F49BC01BC1E92FDFD05A
:10479000B0F35523C9F3E7FB621773078407950746
:1047A000A8F199F3E92FFF2788232AF03197660FA4
:1047B000771F881FDAF7952F5527442332F0915041
:1047C0005040220F331F441FD2F7BB27E91BF50BC4
:1047D000621B730B840BB109C1F222F4620F731FC9
:1047E000841FB11D31972AF0660F771F881FBB1FEA
:1047F000EFCF915050405AF041F0882332F0660FCD
:10480000771F881F91505040C1F793954BC08695F4
:10481000779567959F5FD9F7F8CF990F0008550FE7
:10482000AA0BE0E8FEEF16161706E807F907C0F036
:1048300012161306E407F50798F0621B730B840B3E
:10484000950B39F40A2661F0232B242B252B21F418
:1048500008950A2609F4A140A6958FEF811D811DB8
:10486000089597F99F6780E870E060E008958823D5
:1048700071F4772321F09850872B762F07C0662399
:1048800011F499270DC09051862B70E060E02AF05A
:104890009A95660F771F881FDAF7880F9695879588
:1048A00097F908959F3F31F0915020F487957795BF
:1048B0006795B795880F911D9695879597F90895F7
:1048C0009FEF80EC0895DF93CF931F930F93FF9298
:1048D000EF92DF927B018C01689405C0DA2EEF0124
:1048E0008DD0FE01E894A591259135914591559182
:1048F000AEF3EF01A2DDFE019701A801DA9479F78A
:10490000DF90EF90FF900F911F91CF91DF9108956D
:1049100000240A941616170618060906089500249E
:104920000A9412161306140605060895092E039418
:10493000000C11F4882352F0BB0F40F4BF2B11F48C
:1049400060FF04C06F5F7F4F8F4F9F4F089557FDEB
:104950009058440F551F59F05F3F71F04795880FED
:1049600097FB991F61F09F3F79F087950895121684
:1049700013061406551FF2CF4695F1DF08C0161630
:1049800017061806991FF1CF8695710561050894E1
:104990000895E5DFA0F0BEE7B91788F4BB279F387C
:1049A00060F41616B11D672F782F8827985FF7CF10
:1049B000869577956795B11D93959639C8F30895B7
:1049C000E894BB2766277727CB0197F9089525DF61
:1049D00008F48FEF08959B01AC0160E070E080E87F
:1049E0009FE3E4CD0BD0A2CF93DF28F098DF18F03F
:1049F000952309F036CF64CF1124E3CFA8DFA0F3CD
:104A0000959FD1F3950F50E0551F629FF001729F63
:104A1000BB27F00DB11D639FAA27F00DB11DAA1F82
:104A2000649F6627B00DA11D661F829F2227B00DCF
:104A3000A11D621F739FB00DA11D621F839FA00D5A
:104A4000611D221F749F3327A00D611D231F849FAA
:104A5000600D211D822F762F6A2F11249F57504001
:104A60008AF0E1F088234AF0EE0FFF1FBB1F661F9C
:104A7000771F881F91505040A9F79E3F510570F055
:104A8000F0CE9FCF5F3FECF3983EDCF386957795B1
:104A90006795B795F795E7959F5FC1F7FE2B880F50
:104AA000911D9695879597F908959B01AC019ACF32
:104AB0000895883008F076C0E82FF0E0EE0FFF1F71
:104AC000E459FB4F718360838150873008F03DC00B
:104AD000E82FF0E08827E059FA4D8F4F0C94392FDA
:104AE000AD2577257F258B259825B925C62580916D
:104AF00069008C7F482B40936900E89A0895809163
:104B00006900837F440F551F440F551F482B409366
:104B10006900E99A0895809169008F7C74E0440FE0
:104B2000551F7A95E1F7482B40936900EA9A08955A
:104B3000809169008F7366E0440F551F6A95E1F715
:104B4000482B40936900EB9A089580916A008C7F0E
:104B5000482B40936A00EC9A089580916A00837F05
:104B6000440F551F440F551F482B40936A00ED9A80
:104B7000089580916A008F7C24E0440F551F2A9588
:104B8000E1F7482B40936A00EE9A089580916A00FD
:104B90008F7396E0440F551F9A95E1F7482B409389
:104BA0006A00EF9A08951F920F920FB60F92112488
:104BB0000BB60F922F933F934F935F936F937F9317
:104BC0008F939F93AF93BF93EF93FF93E091700404
:104BD000F09171041995FF91EF91BF91AF919F9161
:104BE0008F917F916F915F914F913F912F910F9096
:104BF0000BBE0F900FBE0F901F9018951F920F9233
:104C00000FB60F9211240BB60F922F933F934F9331
:104C10005F936F937F938F939F93AF93BF93EF9324
:104C2000FF93E0917204F09173041995FF91EF9155
:104C3000BF91AF919F918F917F916F915F914F91B4
:104C40003F912F910F900BBE0F900FBE0F901F90B2
:104C500018951F920F920FB60F9211240BB60F9258
:104C60002F933F934F935F936F937F938F939F9374
:104C7000AF93BF93EF93FF93E0917404F0917504A9
:104C80001995FF91EF91BF91AF919F918F917F9176
:104C90006F915F914F913F912F910F900BBE0F90AD
:104CA0000FBE0F901F9018951F920F920FB60F9284
:104CB00011240BB60F922F933F934F935F936F93F3
:104CC0007F938F939F93AF93BF93EF93FF93E09165
:104CD0007604F09177041995FF91EF91BF91AF9110
:104CE0009F918F917F916F915F914F913F912F9104
:104CF0000F900BBE0F900FBE0F901F9018951F9234
:104D00000F920FB60F9211240BB60F922F933F9371
:104D10004F935F936F937F938F939F93AF93BF93C3
:104D2000EF93FF93E0916C04F0916D041995FF915E
:104D3000EF91BF91AF919F918F917F916F915F9113
:104D40004F913F912F910F900BBE0F900FBE0F9080
:104D50001F9018951F920F920FB60F9211240BB649
:104D60000F922F933F934F935F936F937F938F9304
:104D70009F93AF93BF93EF93FF93E0916E04F091F5
:104D80006F041995FF91EF91BF91AF919F918F9112
:104D90007F916F915F914F913F912F910F900BBE3B
:104DA0000F900FBE0F901F9018951F920F920FB685
:104DB0000F9211240BB60F922F933F934F935F9353
:104DC0006F937F938F939F93AF93BF93EF93FF93D3
:104DD000E0917804F09179041995FF91EF91BF91DA
:104DE000AF919F918F917F916F915F914F913F9183
:104DF0002F910F900BBE0F900FBE0F901F90189524
:104E00001F920F920FB60F9211240BB60F922F9391
:104E10003F934F935F936F937F938F939F93AF9342
:104E2000BF93EF93FF93E0917A04F0917B0419957F
:104E3000FF91EF91BF91AF919F918F917F916F9172
:104E40005F914F913F912F910F900BBE0F900FBE2E
:104E50000F901F9018951F920F920FB60F9211246A
:104E60002F933F938F939F93AF93BF938091AF0600
:104E70009091B006A091B106B091B2063091AE0605
:104E800023E0230F2D3758F50196A11DB11D209366
:104E9000AE068093AF069093B006A093B106B09390
:104EA000B2068091B3069091B406A091B506B09178
:104EB000B6060196A11DB11D8093B3069093B4066A
:104EC000A093B506B093B606BF91AF919F918F9115
:104ED0003F912F910F900FBE0F901F90189526E8CD
:104EE000230F0296A11DB11DD2CF2FB7F894609168
:104EF000AF067091B0068091B1069091B2062FBFB7
:104F00000895789484B5826084BD84B5816084BD41
:104F100085B5826085BD85B5816085BDEEE6F0E032
:104F2000808181608083E1E8F0E01082808182608E
:104F30008083808181608083E0E8F0E0808181600F
:104F40008083E1EBF0E0808184608083E0EBF0E03F
:104F5000808181608083E1E9F0E0808182608083EC
:104F6000808181608083E0E9F0E0808181608083DE
:104F7000E1EAF0E0808182608083808181608083CB
:104F8000E0EAF0E0808181608083E1E2F1E080810D
:104F900082608083808181608083E0E2F1E08081B3
:104FA00081608083EAE7F0E0808184608083808193
:104FB000826080838081816080838081806880833B
:104FC0001092C10008951F93CF93DF93182FEB0128
:104FD00061E033D1209731F460E0812FDF91CF91F0
:104FE0001F9167C1CF3FD10511F461E0F6CFE12FEA
:104FF000F0E0EE5EFE4FE491E150E23108F0B2C025
:10500000F0E08827EA5FF74D8F4F33C71828202834
:1050100025282F283928B22843284B2853285D28D3
:105020006728712880288A28B22894289E28A828D2
:1050300084B5806884BDC7BDDF91CF911F9108956D
:1050400084B5806284BDC8BDF7CF80918000806840
:1050500080938000D0938900C0938800EDCF809129
:105060008000806280938000D0938B00C0938A0080
:10507000E3CF80918000886080938000D0938D0082
:10508000C0938C00D9CF8091B00080688093B0002D
:10509000C093B300D1CF8091B00080628093B00004
:1050A000C093B400C9CF8091900080688093900035
:1050B000D0939900C0939800BFCF809190008062F8
:1050C00080939000D0939B00C0939A00B5CF8091BD
:1050D0009000886080939000D0939D00C0939C00C6
:1050E000ABCF8091A00080688093A0008091A00049
:1050F0008F7B8093A000D093A900C093A8009CCF81
:105100008091A00080628093A000D093AB00C093F8
:10511000AA0092CF8091A00088608093A000D093D5
:10512000AD00C093AC0088CF80912001806880934F
:105130002001D0932901C09328017ECF80912001C6
:10514000806280932001D0932B01C0932A0174CFF9
:1051500080912001886080932001D0932D01C0931D
:105160002C016ACFC038D1050CF03FCF35CF81502C
:10517000823108F059C0E82FF0E08827EE53F74D50
:105180008F4F77C6E228E628D428DA28DE281429AB
:10519000E928EF28F328F928FD28012907290B29F8
:1051A00014290F2915291929809180008F77809360
:1051B00080000895809180008F7DF9CF80918000DC
:1051C000877FF5CF84B58F7784BD089584B58F7DB3
:1051D000FBCF8091B0008F778093B00008958091CD
:1051E000B0008F7DF9CF809190008F7780939000F1
:1051F0000895809190008F7DF9CF80919000877FF6
:10520000F5CF8091A0008F778093A00008958091C2
:10521000A0008F7DF9CF8091A000877FF5CF80918E
:1052200020018F77809320010895809120018F7D48
:10523000F9CF80912001877FF5CFCF93DF9390E066
:10524000FC01E85AFE4F249182569E4FFC01849146
:105250008823C9F090E0880F991FFC01E250FE4FAF
:10526000A591B491FC01EC51FE4FC591D49161110F
:105270000DC09FB7F8948C91209582238C938881E0
:10528000282328839FBFDF91CF910895623051F486
:105290009FB7F8943C91822F809583238C93E8816B
:1052A0002E2BEFCF8FB7F894EC912E2B2C938FBF32
:1052B000EACF1F93CF93DF93282F30E0F901EE5E02
:1052C000FE4F8491F901E85AFE4FD491F901E2565C
:1052D000FE4FC491CC23A1F0162F811148DFEC2F93
:1052E000F0E0EE0FFF1FEC51FE4FA591B4918FB788
:1052F000F894EC91111108C0D095DE23DC938FBF98
:10530000DF91CF911F910895DE2BF8CFFC01918D95
:10531000228D892F90E0805C9F4F821B91098F73B3
:1053200099270895FC01918D828D981731F0828D17
:10533000E80FF11D858D90E008958FEF9FEF0895A0
:10534000FC01918D828D981761F0A28DAE0FBF2F59
:10535000B11D5D968C91928D9F5F9F73928F90E0AF
:1053600008958FEF9FEF0895FC01538D448D252FF5
:1053700030E0842F90E0821B930B541710F0CF96EF
:10538000089501970895FC01A48DA80FB92FB11DB0
:10539000A35ABF4F2C91848D90E001968F7399276B
:1053A000848FA689B7892C93A089B1898C91837049
:1053B00080648C93938D848D981306C00288F38942
:1053C000E02D80818F7D80830895CF93DF93EC0162
:1053D000888D8823B1F0AA89BB89E889F9898C91E5
:1053E00085FD03C0808186FD0CC00FB607FCF7CF9A
:1053F0008C9185FFF2CF808185FFEDCFCE01C3DF99
:10540000EACFDF91CF910895EF92FF920F931F9310
:10541000CF93DF93EC0181E0888F9B8D8C8D981367
:105420001AC0E889F989808185FF15C09FB7F89473
:10543000EE89FF896083E889F989808183708064BF
:1054400080839FBF81E090E0DF91CF911F910F910A
:10545000FF90EF900895F62E0B8D10E00F5F1F4F19
:105460000F731127E02E8C8D8E110BC00FB607FC29
:10547000FACFE889F989808185FFF5CFCE0183DFF6
:10548000F2CFEB8DEC0FFD2FF11DE35AFF4FF082B1
:105490009FB7F8940B8FEA89FB8980818062D0CF17
:1054A000CF92DF92EF92FF921F93CF93DF93EC01A5
:1054B0006A017B01122FE889F98982E08083C11497
:1054C00081EED806E104F10499F060E079E08DE323
:1054D00090E0A7019601ABD421503109410951094F
:1054E0005695479537952795211580E1380790F017
:1054F000E889F989108260E874E88EE190E0A701FC
:10550000960195D421503109410951095695479585
:1055100037952795EC85FD853083EE85FF852083C3
:10552000188EEC89FD891083EA89FB89808180616E
:105530008083EA89FB89808188608083EA89FB898E
:10554000808180688083EA89FB8980818F7D808368
:10555000DF91CF911F91FF90EF90DF90CF90089552
:105560001F920F920FB60F9211240BB60F922F932A
:105570008F939F93EF93FF93E091C706F091C80636
:105580008081E091CD06F091CE0682FD1DC0908114
:105590008091D0068F5F8F732091D106821741F0E2
:1055A000E091D006F0E0E954F94F958F8093D00652
:1055B000FF91EF919F918F912F910F900BBE0F90C4
:1055C0000FBE0F901F9018958081F2CF1F920F92FF
:1055D0000FB60F9211240BB60F922F933F934F9358
:1055E0005F936F937F938F939F93AF93BF93EF934B
:1055F000FF9387EB96E0C7DEFF91EF91BF91AF91EC
:105600009F918F917F916F915F914F913F912F91DA
:105610000F900BBE0F900FBE0F901F901895E7EBE9
:10562000F6E01382128288EE93E0A0E0B0E084837B
:105630009583A683B7838DEC94E09183808385EC7A
:1056400090E09587848784EC90E09787868780EC4C
:1056500090E0918B808B81EC90E0938B828B82EC3D
:1056600090E0958B848B86EC90E0978B868B118EE7
:10567000128E138E148E08951F920F920FB60F92F2
:1056800011240BB60F922F938F939F93EF93FF9359
:10569000E0916407F09165078081E0916A07F091DD
:1056A0006B0782FD1DC0908180916D078F5F8F73A6
:1056B00020916E07821741F0E0916D07F0E0EC5AFF
:1056C000F84F958F80936D07FF91EF919F918F9188
:1056D0002F910F900BBE0F900FBE0F901F9018953B
:1056E0008081F2CF1F920F920FB60F9211240BB64A
:1056F0000F922F933F934F935F936F937F938F936B
:105700009F93AF93BF93EF93FF9384E597E03BDEC6
:10571000FF91EF91BF91AF919F918F917F916F9189
:105720005F914F913F912F910F900BBE0F900FBE45
:105730000F901F901895E4E5F7E01382128288EE2F
:1057400093E0A0E0B0E084839583A683B7838DECDB
:1057500094E0918380838DEC90E0958784878CEC36
:1057600090E09787868788EC90E0918B808B89EC1E
:1057700090E0938B828B8AEC90E0958B848B8EECFF
:1057800090E0978B868B118E128E138E148E089557
:105790001F920F920FB60F9211240BB60F922F93F8
:1057A0008F939F93EF93FF93E0910108F09102088C
:1057B0008081E0910708F091080882FD1DC090816A
:1057C00080910A088F5F8F7320910B08821741F038
:1057D000E0910A08F0E0EF50F84F958F80930A08A7
:1057E000FF91EF919F918F912F910F900BBE0F9092
:1057F0000FBE0F901F9018958081F2CF1F920F92CD
:105800000FB60F9211240BB60F922F933F934F9325
:105810005F936F937F938F939F93AF93BF93EF9318
:10582000FF9381EF97E0AFDDFF91EF91BF91AF91D3
:105830009F918F917F916F915F914F913F912F91A8
:105840000F900BBE0F900FBE0F901F901895E1EFB9
:10585000F7E01382128288EE93E0A0E0B0E0848348
:105860009583A683B7838DEC94E09183808385ED47
:1058700090E09587848784ED90E09787868780ED18
:1058800090E0918B808B81ED90E0938B828B82ED09
:1058900090E0958B848B86ED90E0978B868B118EB4
:1058A000128E138E148E08951F920F920FB60F92C0
:1058B00011240BB60F922F938F939F93EF93FF9327
:1058C000E0919E08F0919F088081E091A408F091FA
:1058D000A50882FD1DC090818091A7088F5F8F73FE
:1058E0002091A808821741F0E091A708F0E0E25764
:1058F000F74F958F8093A708FF91EF919F918F911C
:105900002F910F900BBE0F900FBE0F901F90189508
:105910008081F2CF1F920F920FB60F9211240BB617
:105920000F922F933F934F935F936F937F938F9338
:105930009F93AF93BF93EF93FF938EE898E023DD9F
:10594000FF91EF91BF91AF919F918F917F916F9157
:105950005F914F913F912F910F900BBE0F900FBE13
:105960000F901F901895EEE8F8E01382128288EEEF
:1059700093E0A0E0B0E084839583A683B7838DECA9
:1059800094E09183808385E391E09587848784E325
:1059900091E09787868780E391E0918B808B81E30C
:1059A00091E0938B828B82E391E0958B848B86E3ED
:1059B00091E0978B868B118E128E138E148E089524
:1059C000AF92BF92CF92DF92EF92FF920F931F930D
:1059D000CF93DF936C017B018B01040F151FEB014B
:1059E0005E01AE18BF08C017D10759F06991D60102
:1059F000ED91FC910190F081E02DC6011995892B64
:105A000079F7C501DF91CF911F910F91FF90EF9032
:105A1000DF90CF90BF90AF900895FB0101900020E0
:105A2000E9F73197AF01461B570BDC01ED91FC9173
:105A30000280F381E02D19946115710509F0EDCF15
:105A400090E080E00895DC01ED91FC910190F081FF
:105A5000E02D19946BED74E0E0CF8F929F92AF929E
:105A6000BF92EF92FF920F931F93CF93DF93CDB727
:105A7000DEB7A1970FB6F894DEBF0FBECDBF7C0195
:105A8000FA01CB0119A2223008F42AE08E010F5D41
:105A90001F4F822E912CB12CA12CBF01A501940186
:105AA000C6D1F901CA016A3004F5605DD8016E9370
:105AB0008D01232B242B252B81F790E080E010977C
:105AC00019F0BD01C701A9DFA1960FB6F894DEBF9A
:105AD0000FBECDBFDF91CF911F910F91FF90EF903F
